{
  "contractName": "Summoner",
  "abi": [
    {
      "constant": false,
      "inputs": [
        {
          "name": "heroID",
          "type": "uint256"
        }
      ],
      "name": "summon",
      "outputs": [],
      "payable": false,
      "stateMutability": "nonpayable",
      "type": "function"
    },
    {
      "constant": true,
      "inputs": [],
      "name": "getHero",
      "outputs": [
        {
          "name": "",
          "type": "uint256"
        }
      ],
      "payable": false,
      "stateMutability": "view",
      "type": "function"
    }
  ],
  "bytecode": "0x608060405234801561001057600080fd5b5060e08061001f6000396000f3006080604052600436106049576000357c0100000000000000000000000000000000000000000000000000000000900463ffffffff168063035d9f2a14604e578063581bee2f146078575b600080fd5b348015605957600080fd5b5060766004803603810190808035906020019092919050505060a0565b005b348015608357600080fd5b50608a60aa565b6040518082815260200191505060405180910390f35b8060028190555050565b60006002549050905600a165627a7a72305820528f99b4dc1ef14accb8bb1876871383814776002fdcf9b8306b3389155920a70029",
  "source": "pragma solidity ^0.4.17;\r\n\r\ncontract Hero {\r\n\tuint hp;\r\n\tuint atk;\r\n\tuint def;\r\n\tuint ID;\r\n\t//获取属性\r\n\tfunction getHp() public view returns(uint) {\r\n\t\treturn hp;\r\n\t}\r\n\tfunction getAtk() public view returns(uint) {\r\n\t\treturn atk;\r\n\t}\r\n\tfunction getDef() public view returns(uint) {\r\n\t\treturn def;\r\n\t}\r\n    \r\n\t//增加属性\r\n\tfunction addHp() public {\r\n\t\t++hp;\r\n\t}\r\n\tfunction addAtk() public {\r\n\t\t++atk;\r\n\t}\r\n\tfunction addDef() public {\r\n\t\t++def;\r\n\t}\r\n\r\n}\r\n\r\ncontract Summoner {\r\n\tuint level;\r\n\tuint wins;\r\n\tuint heroId;\r\n    function summon(uint heroID) public{\r\n        heroId = heroID;\r\n    }\r\n\r\n    function getHero() public view returns(uint) {\r\n        return heroId;\r\n    }\r\n}\r\n\r\ncontract Summon {\r\n\r\n  Hero[16] public heros;  // 保存英雄的地址\r\n\r\n    // 召唤英雄\r\n  function summon(Summoner summoner, uint heroId) public returns (uint) {\r\n    require(heroId >= 0 && heroId <= 15);  // 确保id在数组长度内\r\n\t\r\n\tsummoner.summon(heroId);\r\n\t\r\n    return heroId;\r\n  }\r\n\r\n  // 返回英雄\r\n  function getHeros() public view returns (Hero[16]) {\r\n    return heros;\r\n  }\r\n\r\n  function battle(Summoner summoner1, Summoner summoner2) public view returns (bool) {\r\n\tif (heros[summoner1.getHero()].getAtk() > heros[summoner2.getHero()].getAtk()) return true;\r\n  }\r\n  \r\n  function addPoint(Summoner summoner) public {\r\n\theros[summoner.getHero()].addHp();\r\n\theros[summoner.getHero()].addAtk();\r\n\theros[summoner.getHero()].addDef();\r\n  }\r\n}",
  "sourcePath": "D:\\geth\\blocks\\pet-shop-tutorial\\contracts\\Summon.sol",
  "compiler": {
    "name": "solc",
    "version": "0.4.24+commit.e67f0147.Emscripten.clang"
  },
  "schemaVersion": "2.0.1",
  "updatedAt": "2018-12-28T13:34:50.130Z"
}