{
  "contractName": "Summon",
  "abi": [
    {
      "constant": true,
      "inputs": [
        {
          "name": "",
          "type": "uint256"
        }
      ],
      "name": "heros",
      "outputs": [
        {
          "name": "",
          "type": "address"
        }
      ],
      "payable": false,
      "stateMutability": "view",
      "type": "function"
    },
    {
      "constant": false,
      "inputs": [
        {
          "name": "summoner",
          "type": "address"
        },
        {
          "name": "heroId",
          "type": "uint256"
        }
      ],
      "name": "summon",
      "outputs": [
        {
          "name": "",
          "type": "uint256"
        }
      ],
      "payable": false,
      "stateMutability": "nonpayable",
      "type": "function"
    },
    {
      "constant": true,
      "inputs": [],
      "name": "getHeros",
      "outputs": [
        {
          "name": "",
          "type": "address[16]"
        }
      ],
      "payable": false,
      "stateMutability": "view",
      "type": "function"
    },
    {
      "constant": true,
      "inputs": [
        {
          "name": "summoner1",
          "type": "address"
        },
        {
          "name": "summoner2",
          "type": "address"
        }
      ],
      "name": "battle",
      "outputs": [
        {
          "name": "",
          "type": "bool"
        }
      ],
      "payable": false,
      "stateMutability": "view",
      "type": "function"
    },
    {
      "constant": false,
      "inputs": [
        {
          "name": "summoner",
          "type": "address"
        }
      ],
      "name": "addPoint",
      "outputs": [],
      "payable": false,
      "stateMutability": "nonpayable",
      "type": "function"
    }
  ],
  "bytecode": "0x608060405234801561001057600080fd5b50610ad7806100206000396000f30060806040526004361061006d576000357c0100000000000000000000000000000000000000000000000000000000900463ffffffff1680633be38b491461007257806349779bed146100c557806358db16d914610108578063814aab7814610169578063b6c206cc146101d6575b600080fd5b34801561007e57600080fd5b50610087610251565b6040518082601060200280838360005b838110156100b2578082015181840152602081019050610097565b5050505090500191505060405180910390f35b3480156100d157600080fd5b50610106600480360381019080803573ffffffffffffffffffffffffffffffffffffffff1690602001909291905050506102d2565b005b34801561011457600080fd5b50610153600480360381019080803573ffffffffffffffffffffffffffffffffffffffff169060200190929190803590602001909291905050506106b3565b6040518082815260200191505060405180910390f35b34801561017557600080fd5b5061019460048036038101908080359060200190929190505050610761565b604051808273ffffffffffffffffffffffffffffffffffffffff1673ffffffffffffffffffffffffffffffffffffffff16815260200191505060405180910390f35b3480156101e257600080fd5b50610237600480360381019080803573ffffffffffffffffffffffffffffffffffffffff169060200190929190803573ffffffffffffffffffffffffffffffffffffffff169060200190929190505050610796565b604051808215151515815260200191505060405180910390f35b610259610a87565b60006010806020026040519081016040528092919082601080156102c8576020028201915b8160009054906101000a900473ffffffffffffffffffffffffffffffffffffffff1673ffffffffffffffffffffffffffffffffffffffff168152602001906001019080831161027e575b5050505050905090565b60008173ffffffffffffffffffffffffffffffffffffffff1663581bee2f6040518163ffffffff167c0100000000000000000000000000000000000000000000000000000000028152600401602060405180830381600087803b15801561033857600080fd5b505af115801561034c573d6000803e3d6000fd5b505050506040513d602081101561036257600080fd5b810190808051906020019092919050505060108110151561037f57fe5b0160009054906101000a900473ffffffffffffffffffffffffffffffffffffffff1673ffffffffffffffffffffffffffffffffffffffff1663bdc478706040518163ffffffff167c0100000000000000000000000000000000000000000000000000000000028152600401600060405180830381600087803b15801561040457600080fd5b505af1158015610418573d6000803e3d6000fd5b5050505060008173ffffffffffffffffffffffffffffffffffffffff1663581bee2f6040518163ffffffff167c0100000000000000000000000000000000000000000000000000000000028152600401602060405180830381600087803b15801561048257600080fd5b505af1158015610496573d6000803e3d6000fd5b505050506040513d60208110156104ac57600080fd5b81019080805190602001909291905050506010811015156104c957fe5b0160009054906101000a900473ffffffffffffffffffffffffffffffffffffffff1673ffffffffffffffffffffffffffffffffffffffff1663eaacc21f6040518163ffffffff167c0100000000000000000000000000000000000000000000000000000000028152600401600060405180830381600087803b15801561054e57600080fd5b505af1158015610562573d6000803e3d6000fd5b5050505060008173ffffffffffffffffffffffffffffffffffffffff1663581bee2f6040518163ffffffff167c0100000000000000000000000000000000000000000000000000000000028152600401602060405180830381600087803b1580156105cc57600080fd5b505af11580156105e0573d6000803e3d6000fd5b505050506040513d60208110156105f657600080fd5b810190808051906020019092919050505060108110151561061357fe5b0160009054906101000a900473ffffffffffffffffffffffffffffffffffffffff1673ffffffffffffffffffffffffffffffffffffffff1663c78a8ac16040518163ffffffff167c0100000000000000000000000000000000000000000000000000000000028152600401600060405180830381600087803b15801561069857600080fd5b505af11580156106ac573d6000803e3d6000fd5b5050505050565b60008082101580156106c65750600f8211155b15156106d157600080fd5b8273ffffffffffffffffffffffffffffffffffffffff1663035d9f2a836040518263ffffffff167c010000000000000000000000000000000000000000000000000000000002815260040180828152602001915050600060405180830381600087803b15801561074057600080fd5b505af1158015610754573d6000803e3d6000fd5b5050505081905092915050565b60008160108110151561077057fe5b016000915054906101000a900473ffffffffffffffffffffffffffffffffffffffff1681565b6000808273ffffffffffffffffffffffffffffffffffffffff1663581bee2f6040518163ffffffff167c0100000000000000000000000000000000000000000000000000000000028152600401602060405180830381600087803b1580156107fd57600080fd5b505af1158015610811573d6000803e3d6000fd5b505050506040513d602081101561082757600080fd5b810190808051906020019092919050505060108110151561084457fe5b0160009054906101000a900473ffffffffffffffffffffffffffffffffffffffff1673ffffffffffffffffffffffffffffffffffffffff16639c38a51a6040518163ffffffff167c0100000000000000000000000000000000000000000000000000000000028152600401602060405180830381600087803b1580156108c957600080fd5b505af11580156108dd573d6000803e3d6000fd5b505050506040513d60208110156108f357600080fd5b810190808051906020019092919050505060008473ffffffffffffffffffffffffffffffffffffffff1663581bee2f6040518163ffffffff167c0100000000000000000000000000000000000000000000000000000000028152600401602060405180830381600087803b15801561096a57600080fd5b505af115801561097e573d6000803e3d6000fd5b505050506040513d602081101561099457600080fd5b81019080805190602001909291905050506010811015156109b157fe5b0160009054906101000a900473ffffffffffffffffffffffffffffffffffffffff1673ffffffffffffffffffffffffffffffffffffffff16639c38a51a6040518163ffffffff167c0100000000000000000000000000000000000000000000000000000000028152600401602060405180830381600087803b158015610a3657600080fd5b505af1158015610a4a573d6000803e3d6000fd5b505050506040513d6020811015610a6057600080fd5b81019080805190602001909291905050501115610a805760019050610a81565b5b92915050565b610200604051908101604052806010906020820280388339808201915050905050905600a165627a7a723058203b3383755c26014bcd18321b185b856f78430267f08bbc946e68fbad1b2575470029",
  "source": "pragma solidity ^0.4.17;\r\n\r\ncontract Hero {\r\n\tuint hp;\r\n\tuint atk;\r\n\tuint def;\r\n\tuint ID;\r\n\t//获取属性\r\n\tfunction getHp() public view returns(uint) {\r\n\t\treturn hp;\r\n\t}\r\n\tfunction getAtk() public view returns(uint) {\r\n\t\treturn atk;\r\n\t}\r\n\tfunction getDef() public view returns(uint) {\r\n\t\treturn def;\r\n\t}\r\n    \r\n\t//增加属性\r\n\tfunction addHp() public {\r\n\t\t++hp;\r\n\t}\r\n\tfunction addAtk() public {\r\n\t\t++atk;\r\n\t}\r\n\tfunction addDef() public {\r\n\t\t++def;\r\n\t}\r\n\r\n}\r\n\r\ncontract Summoner {\r\n\tuint level;\r\n\tuint wins;\r\n\tuint heroId;\r\n    function summon(uint heroID) public{\r\n        heroId = heroID;\r\n    }\r\n\r\n    function getHero() public view returns(uint) {\r\n        return heroId;\r\n    }\r\n}\r\n\r\ncontract Summon {\r\n\r\n  Hero[16] public heros;  // 保存英雄的地址\r\n\r\n    // 召唤英雄\r\n  function summon(Summoner summoner, uint heroId) public returns (uint) {\r\n    require(heroId >= 0 && heroId <= 15);  // 确保id在数组长度内\r\n\t\r\n\tsummoner.summon(heroId);\r\n\t\r\n    return heroId;\r\n  }\r\n\r\n  // 返回英雄\r\n  function getHeros() public view returns (Hero[16]) {\r\n    return heros;\r\n  }\r\n\r\n  function battle(Summoner summoner1, Summoner summoner2) public view returns (bool) {\r\n\tif (heros[summoner1.getHero()].getAtk() > heros[summoner2.getHero()].getAtk()) return true;\r\n  }\r\n  \r\n  function addPoint(Summoner summoner) public {\r\n\theros[summoner.getHero()].addHp();\r\n\theros[summoner.getHero()].addAtk();\r\n\theros[summoner.getHero()].addDef();\r\n  }\r\n}",
  "sourcePath": "D:\\geth\\blocks\\pet-shop-tutorial\\contracts\\Summon.sol",
  "compiler": {
    "name": "solc",
    "version": "0.4.24+commit.e67f0147.Emscripten.clang"
  },
  "schemaVersion": "2.0.1",
  "updatedAt": "2018-12-28T13:34:59.911Z"
}